{
  "contractName": "Registry",
  "abi": [
    {
      "inputs": [],
      "stateMutability": "nonpayable",
      "type": "constructor"
    },
    {
      "inputs": [
        {
          "internalType": "address",
          "name": "",
          "type": "address"
        }
      ],
      "name": "admins",
      "outputs": [
        {
          "internalType": "address",
          "name": "adminAddress",
          "type": "address"
        },
        {
          "internalType": "string",
          "name": "city",
          "type": "string"
        },
        {
          "internalType": "string",
          "name": "district",
          "type": "string"
        },
        {
          "internalType": "string",
          "name": "state",
          "type": "string"
        }
      ],
      "stateMutability": "view",
      "type": "function"
    },
    {
      "inputs": [
        {
          "internalType": "string",
          "name": "",
          "type": "string"
        },
        {
          "internalType": "string",
          "name": "",
          "type": "string"
        },
        {
          "internalType": "string",
          "name": "",
          "type": "string"
        },
        {
          "internalType": "uint256",
          "name": "",
          "type": "uint256"
        }
      ],
      "name": "landDetalsMap",
      "outputs": [
        {
          "internalType": "address",
          "name": "owner",
          "type": "address"
        },
        {
          "internalType": "address",
          "name": "admin",
          "type": "address"
        },
        {
          "internalType": "uint256",
          "name": "propertyId",
          "type": "uint256"
        },
        {
          "internalType": "uint256",
          "name": "surveyNumber",
          "type": "uint256"
        },
        {
          "internalType": "uint256",
          "name": "index",
          "type": "uint256"
        },
        {
          "internalType": "bool",
          "name": "registered",
          "type": "bool"
        },
        {
          "internalType": "uint256",
          "name": "marketValue",
          "type": "uint256"
        },
        {
          "internalType": "bool",
          "name": "markAvailable",
          "type": "bool"
        },
        {
          "internalType": "uint256",
          "name": "noOfRequests",
          "type": "uint256"
        },
        {
          "internalType": "uint256",
          "name": "sqft",
          "type": "uint256"
        }
      ],
      "stateMutability": "view",
      "type": "function"
    },
    {
      "inputs": [
        {
          "internalType": "address",
          "name": "",
          "type": "address"
        },
        {
          "internalType": "uint256",
          "name": "",
          "type": "uint256"
        }
      ],
      "name": "ownerMapsProperty",
      "outputs": [
        {
          "internalType": "uint256",
          "name": "surveyNumber",
          "type": "uint256"
        },
        {
          "internalType": "string",
          "name": "state",
          "type": "string"
        },
        {
          "internalType": "string",
          "name": "district",
          "type": "string"
        },
        {
          "internalType": "string",
          "name": "city",
          "type": "string"
        }
      ],
      "stateMutability": "view",
      "type": "function"
    },
    {
      "inputs": [
        {
          "internalType": "address",
          "name": "",
          "type": "address"
        },
        {
          "internalType": "uint256",
          "name": "",
          "type": "uint256"
        }
      ],
      "name": "requestedLands",
      "outputs": [
        {
          "internalType": "uint256",
          "name": "surveyNumber",
          "type": "uint256"
        },
        {
          "internalType": "string",
          "name": "state",
          "type": "string"
        },
        {
          "internalType": "string",
          "name": "district",
          "type": "string"
        },
        {
          "internalType": "string",
          "name": "city",
          "type": "string"
        }
      ],
      "stateMutability": "view",
      "type": "function"
    },
    {
      "inputs": [],
      "name": "superAdmin",
      "outputs": [
        {
          "internalType": "address",
          "name": "",
          "type": "address"
        }
      ],
      "stateMutability": "view",
      "type": "function"
    },
    {
      "inputs": [],
      "name": "totalAdmins",
      "outputs": [
        {
          "internalType": "uint256",
          "name": "",
          "type": "uint256"
        }
      ],
      "stateMutability": "view",
      "type": "function"
    },
    {
      "inputs": [
        {
          "internalType": "address",
          "name": "",
          "type": "address"
        }
      ],
      "name": "userProfile",
      "outputs": [
        {
          "internalType": "address",
          "name": "userAddr",
          "type": "address"
        },
        {
          "internalType": "string",
          "name": "fullName",
          "type": "string"
        },
        {
          "internalType": "string",
          "name": "gender",
          "type": "string"
        },
        {
          "internalType": "string",
          "name": "email",
          "type": "string"
        },
        {
          "internalType": "uint256",
          "name": "contact",
          "type": "uint256"
        },
        {
          "internalType": "string",
          "name": "residentialAddr",
          "type": "string"
        },
        {
          "internalType": "uint256",
          "name": "totalIndices",
          "type": "uint256"
        },
        {
          "internalType": "uint256",
          "name": "requestIndices",
          "type": "uint256"
        }
      ],
      "stateMutability": "view",
      "type": "function"
    },
    {
      "inputs": [
        {
          "internalType": "address",
          "name": "_adminAddr",
          "type": "address"
        },
        {
          "internalType": "string",
          "name": "_state",
          "type": "string"
        },
        {
          "internalType": "string",
          "name": "_district",
          "type": "string"
        },
        {
          "internalType": "string",
          "name": "_city",
          "type": "string"
        }
      ],
      "name": "addAdmin",
      "outputs": [],
      "stateMutability": "nonpayable",
      "type": "function"
    },
    {
      "inputs": [],
      "name": "isAdmin",
      "outputs": [
        {
          "internalType": "bool",
          "name": "",
          "type": "bool"
        }
      ],
      "stateMutability": "view",
      "type": "function"
    },
    {
      "inputs": [
        {
          "internalType": "string",
          "name": "_state",
          "type": "string"
        },
        {
          "internalType": "string",
          "name": "_district",
          "type": "string"
        },
        {
          "internalType": "string",
          "name": "_city",
          "type": "string"
        },
        {
          "internalType": "uint256",
          "name": "_propertyId",
          "type": "uint256"
        },
        {
          "internalType": "uint256",
          "name": "_surveyNo",
          "type": "uint256"
        },
        {
          "internalType": "address",
          "name": "_owner",
          "type": "address"
        },
        {
          "internalType": "uint256",
          "name": "_marketValue",
          "type": "uint256"
        },
        {
          "internalType": "uint256",
          "name": "_sqft",
          "type": "uint256"
        }
      ],
      "name": "registerLand",
      "outputs": [],
      "stateMutability": "nonpayable",
      "type": "function"
    },
    {
      "inputs": [
        {
          "internalType": "string",
          "name": "_fullName",
          "type": "string"
        },
        {
          "internalType": "string",
          "name": "_gender",
          "type": "string"
        },
        {
          "internalType": "string",
          "name": "_email",
          "type": "string"
        },
        {
          "internalType": "uint256",
          "name": "_contact",
          "type": "uint256"
        },
        {
          "internalType": "string",
          "name": "_residentialAddr",
          "type": "string"
        }
      ],
      "name": "setUserProfile",
      "outputs": [],
      "stateMutability": "nonpayable",
      "type": "function"
    },
    {
      "inputs": [
        {
          "internalType": "uint256",
          "name": "indexNo",
          "type": "uint256"
        }
      ],
      "name": "markMyPropertyAvailable",
      "outputs": [],
      "stateMutability": "nonpayable",
      "type": "function"
    },
    {
      "inputs": [
        {
          "internalType": "string",
          "name": "_state",
          "type": "string"
        },
        {
          "internalType": "string",
          "name": "_district",
          "type": "string"
        },
        {
          "internalType": "string",
          "name": "_city",
          "type": "string"
        },
        {
          "internalType": "uint256",
          "name": "_surveyNo",
          "type": "uint256"
        }
      ],
      "name": "RequestForBuy",
      "outputs": [],
      "stateMutability": "nonpayable",
      "type": "function"
    },
    {
      "inputs": [
        {
          "internalType": "uint256",
          "name": "_index",
          "type": "uint256"
        },
        {
          "internalType": "uint256",
          "name": "_reqNo",
          "type": "uint256"
        }
      ],
      "name": "AcceptRequest",
      "outputs": [],
      "stateMutability": "nonpayable",
      "type": "function"
    },
    {
      "inputs": [
        {
          "internalType": "string",
          "name": "_state",
          "type": "string"
        },
        {
          "internalType": "string",
          "name": "_district",
          "type": "string"
        },
        {
          "internalType": "string",
          "name": "_city",
          "type": "string"
        },
        {
          "internalType": "uint256",
          "name": "_surveyNo",
          "type": "uint256"
        }
      ],
      "name": "getLandDetails",
      "outputs": [
        {
          "internalType": "address",
          "name": "",
          "type": "address"
        },
        {
          "internalType": "uint256",
          "name": "",
          "type": "uint256"
        },
        {
          "internalType": "uint256",
          "name": "",
          "type": "uint256"
        },
        {
          "internalType": "uint256",
          "name": "",
          "type": "uint256"
        },
        {
          "internalType": "uint256",
          "name": "",
          "type": "uint256"
        }
      ],
      "stateMutability": "view",
      "type": "function"
    },
    {
      "inputs": [
        {
          "internalType": "string",
          "name": "_state",
          "type": "string"
        },
        {
          "internalType": "string",
          "name": "_district",
          "type": "string"
        },
        {
          "internalType": "string",
          "name": "_city",
          "type": "string"
        },
        {
          "internalType": "uint256",
          "name": "_surveyNo",
          "type": "uint256"
        }
      ],
      "name": "getRequestCnt_propId",
      "outputs": [
        {
          "internalType": "uint256",
          "name": "",
          "type": "uint256"
        },
        {
          "internalType": "uint256",
          "name": "",
          "type": "uint256"
        }
      ],
      "stateMutability": "view",
      "type": "function"
    },
    {
      "inputs": [
        {
          "internalType": "string",
          "name": "_state",
          "type": "string"
        },
        {
          "internalType": "string",
          "name": "_district",
          "type": "string"
        },
        {
          "internalType": "string",
          "name": "_city",
          "type": "string"
        },
        {
          "internalType": "uint256",
          "name": "_surveyNo",
          "type": "uint256"
        },
        {
          "internalType": "uint256",
          "name": "_reqIndex",
          "type": "uint256"
        }
      ],
      "name": "getRequesterDetail",
      "outputs": [
        {
          "internalType": "address",
          "name": "",
          "type": "address"
        }
      ],
      "stateMutability": "view",
      "type": "function"
    },
    {
      "inputs": [
        {
          "internalType": "string",
          "name": "_state",
          "type": "string"
        },
        {
          "internalType": "string",
          "name": "_district",
          "type": "string"
        },
        {
          "internalType": "string",
          "name": "_city",
          "type": "string"
        },
        {
          "internalType": "uint256",
          "name": "_surveyNo",
          "type": "uint256"
        }
      ],
      "name": "isAvailable",
      "outputs": [
        {
          "internalType": "bool",
          "name": "",
          "type": "bool"
        }
      ],
      "stateMutability": "view",
      "type": "function"
    },
    {
      "inputs": [
        {
          "internalType": "uint256",
          "name": "indx",
          "type": "uint256"
        }
      ],
      "name": "getOwnerOwns",
      "outputs": [
        {
          "internalType": "string",
          "name": "",
          "type": "string"
        },
        {
          "internalType": "string",
          "name": "",
          "type": "string"
        },
        {
          "internalType": "string",
          "name": "",
          "type": "string"
        },
        {
          "internalType": "uint256",
          "name": "",
          "type": "uint256"
        }
      ],
      "stateMutability": "view",
      "type": "function"
    },
    {
      "inputs": [
        {
          "internalType": "uint256",
          "name": "indx",
          "type": "uint256"
        }
      ],
      "name": "getRequestedLands",
      "outputs": [
        {
          "internalType": "string",
          "name": "",
          "type": "string"
        },
        {
          "internalType": "string",
          "name": "",
          "type": "string"
        },
        {
          "internalType": "string",
          "name": "",
          "type": "string"
        },
        {
          "internalType": "uint256",
          "name": "",
          "type": "uint256"
        }
      ],
      "stateMutability": "view",
      "type": "function"
    },
    {
      "inputs": [],
      "name": "getUserProfile",
      "outputs": [
        {
          "internalType": "string",
          "name": "",
          "type": "string"
        },
        {
          "internalType": "string",
          "name": "",
          "type": "string"
        },
        {
          "internalType": "string",
          "name": "",
          "type": "string"
        },
        {
          "internalType": "uint256",
          "name": "",
          "type": "uint256"
        },
        {
          "internalType": "string",
          "name": "",
          "type": "string"
        }
      ],
      "stateMutability": "view",
      "type": "function"
    },
    {
      "inputs": [],
      "name": "getIndices",
      "outputs": [
        {
          "internalType": "uint256",
          "name": "",
          "type": "uint256"
        },
        {
          "internalType": "uint256",
          "name": "",
          "type": "uint256"
        }
      ],
      "stateMutability": "view",
      "type": "function"
    },
    {
      "inputs": [
        {
          "internalType": "string",
          "name": "_state",
          "type": "string"
        },
        {
          "internalType": "string",
          "name": "_district",
          "type": "string"
        },
        {
          "internalType": "string",
          "name": "_city",
          "type": "string"
        },
        {
          "internalType": "uint256",
          "name": "_surveyNo",
          "type": "uint256"
        }
      ],
      "name": "didIRequested",
      "outputs": [
        {
          "internalType": "bool",
          "name": "",
          "type": "bool"
        }
      ],
      "stateMutability": "view",
      "type": "function"
    },
    {
      "inputs": [
        {
          "internalType": "string",
          "name": "_state",
          "type": "string"
        },
        {
          "internalType": "string",
          "name": "_district",
          "type": "string"
        },
        {
          "internalType": "string",
          "name": "_city",
          "type": "string"
        },
        {
          "internalType": "uint256",
          "name": "_surveyNo",
          "type": "uint256"
        }
      ],
      "name": "getOwnerHistory",
      "outputs": [
        {
          "internalType": "address[]",
          "name": "",
          "type": "address[]"
        }
      ],
      "stateMutability": "view",
      "type": "function"
    }
  ],
  "bytecode": "0x608060405234801561001057600080fd5b50336000806101000a81548173ffffffffffffffffffffffffffffffffffffffff021916908373ffffffffffffffffffffffffffffffffffffffff160217905550614d39806100606000396000f3fe608060405234801561001057600080fd5b50600436106101585760003560e01c80636d1b9a8e116100c3578063d06efd671161007c578063d06efd6714610432578063d1dbeff214610463578063d41cc5c814610496578063e331ad7c146104b2578063eaec23fa146104e6578063eb68048b1461051657610158565b80636d1b9a8e146103575780636f61c7441461038a5780638a80e4e4146103ac578063992369da146103c8578063b6db75a0146103f8578063bfde241c1461041657610158565b80632a52ee86116101155780632a52ee861461026a5780632ca305f3146102865780633bbd43b3146102b9578063429b62e5146102e957806344e057341461031c5780635863056d1461033857610158565b806303825d6c1461015d5780630e2279af146101795780631555ff1e146101ac5780631a5aba04146101e55780631c8e89621461021557806329575f6a1461024c575b600080fd5b61017760048036038101906101729190613e0d565b610534565b005b610193600480360381019061018e9190613efe565b610624565b6040516101a39493929190613fd5565b60405180910390f35b6101c660048036038101906101c1919061402f565b6107f9565b6040516101dc9a99989796959493929190614114565b60405180910390f35b6101ff60048036038101906101fa919061402f565b610910565b60405161020c919061426e565b60405180910390f35b61022f600480360381019061022a9190614290565b610a0b565b6040516102439897969594939291906142bd565b60405180910390f35b610254610c93565b6040516102619190614357565b60405180910390f35b610284600480360381019061027f9190614372565b610cb7565b005b6102a0600480360381019061029b919061447c565b61132c565b6040516102b094939291906144a9565b60405180910390f35b6102d360048036038101906102ce9190614503565b611641565b6040516102e09190614357565b60405180910390f35b61030360048036038101906102fe9190614290565b6116f2565b60405161031394939291906145d2565b60405180910390f35b6103366004803603810190610331919061447c565b6118da565b005b610340611d1a565b60405161034e92919061462c565b60405180910390f35b610371600480360381019061036c919061447c565b611db7565b60405161038194939291906144a9565b60405180910390f35b6103926120cc565b6040516103a3959493929190614655565b60405180910390f35b6103c660048036038101906103c1919061402f565b612473565b005b6103e260048036038101906103dd919061402f565b61275a565b6040516103ef91906146c4565b60405180910390f35b6104006127e3565b60405161040d91906146c4565b60405180910390f35b610430600480360381019061042b91906146df565b61288c565b005b61044c6004803603810190610447919061402f565b612944565b60405161045a92919061462c565b60405180910390f35b61047d60048036038101906104789190613efe565b612a36565b60405161048d9493929190613fd5565b60405180910390f35b6104b060048036038101906104ab91906147ca565b612c0b565b005b6104cc60048036038101906104c7919061402f565b6137cc565b6040516104dd95949392919061480a565b60405180910390f35b61050060048036038101906104fb919061402f565b613a3d565b60405161050d91906146c4565b60405180910390f35b61051e613b6c565b60405161052b919061485d565b60405180910390f35b6000600260008673ffffffffffffffffffffffffffffffffffffffff1673ffffffffffffffffffffffffffffffffffffffff16815260200190815260200160002090506001600081548092919061058a906148a7565b9190505550848160000160006101000a81548173ffffffffffffffffffffffffffffffffffffffff021916908373ffffffffffffffffffffffffffffffffffffffff160217905550818160010190805190602001906105ea929190613b72565b5082816002019080519060200190610603929190613b72565b508381600301908051906020019061061c929190613b72565b505050505050565b60046020528160005260406000206020528060005260406000206000915091505080600001549080600101805461065a9061491f565b80601f01602080910402602001604051908101604052809291908181526020018280546106869061491f565b80156106d35780601f106106a8576101008083540402835291602001916106d3565b820191906000526020600020905b8154815290600101906020018083116106b657829003601f168201915b5050505050908060020180546106e89061491f565b80601f01602080910402602001604051908101604052809291908181526020018280546107149061491f565b80156107615780601f1061073657610100808354040283529160200191610761565b820191906000526020600020905b81548152906001019060200180831161074457829003601f168201915b5050505050908060030180546107769061491f565b80601f01602080910402602001604051908101604052809291908181526020018280546107a29061491f565b80156107ef5780601f106107c4576101008083540402835291602001916107ef565b820191906000526020600020905b8154815290600101906020018083116107d257829003601f168201915b5050505050905084565b60058480516020810182018051848252602083016020850120818352809550505050505083805160208101820180518482526020830160208501208183528095505050505050828051602081018201805184825260208301602085012081835280955050505050506020528060005260406000206000935093505050508060010160009054906101000a900473ffffffffffffffffffffffffffffffffffffffff16908060020160009054906101000a900473ffffffffffffffffffffffffffffffffffffffff16908060030154908060040154908060050154908060060160009054906101000a900460ff16908060070154908060080160009054906101000a900460ff169080600a01549080600b015490508a565b6060600585604051610922919061498d565b90815260200160405180910390208460405161093e919061498d565b90815260200160405180910390208360405161095a919061498d565b908152602001604051809103902060008381526020019081526020016000206000018054806020026020016040519081016040528092919081815260200182805480156109fc57602002820191906000526020600020905b8160009054906101000a900473ffffffffffffffffffffffffffffffffffffffff1673ffffffffffffffffffffffffffffffffffffffff16815260200190600101908083116109b2575b50505050509050949350505050565b60066020528060005260406000206000915090508060000160009054906101000a900473ffffffffffffffffffffffffffffffffffffffff1690806001018054610a549061491f565b80601f0160208091040260200160405190810160405280929190818152602001828054610a809061491f565b8015610acd5780601f10610aa257610100808354040283529160200191610acd565b820191906000526020600020905b815481529060010190602001808311610ab057829003601f168201915b505050505090806002018054610ae29061491f565b80601f0160208091040260200160405190810160405280929190818152602001828054610b0e9061491f565b8015610b5b5780601f10610b3057610100808354040283529160200191610b5b565b820191906000526020600020905b815481529060010190602001808311610b3e57829003601f168201915b505050505090806003018054610b709061491f565b80601f0160208091040260200160405190810160405280929190818152602001828054610b9c9061491f565b8015610be95780601f10610bbe57610100808354040283529160200191610be9565b820191906000526020600020905b815481529060010190602001808311610bcc57829003601f168201915b505050505090806004015490806005018054610c049061491f565b80601f0160208091040260200160405190810160405280929190818152602001828054610c309061491f565b8015610c7d5780601f10610c5257610100808354040283529160200191610c7d565b820191906000526020600020905b815481529060010190602001808311610c6057829003601f168201915b5050505050908060060154908060070154905088565b60008054906101000a900473ffffffffffffffffffffffffffffffffffffffff1681565b3373ffffffffffffffffffffffffffffffffffffffff16600260003373ffffffffffffffffffffffffffffffffffffffff1673ffffffffffffffffffffffffffffffffffffffff16815260200190815260200160002060000160009054906101000a900473ffffffffffffffffffffffffffffffffffffffff1673ffffffffffffffffffffffffffffffffffffffff1614610d87576040517f08c379a0000000000000000000000000000000000000000000000000000000008152600401610d7e906149f0565b60405180910390fd5b87604051602001610d98919061498d565b60405160208183030381529060405280519060200120600260003373ffffffffffffffffffffffffffffffffffffffff1673ffffffffffffffffffffffffffffffffffffffff168152602001908152602001600020600301604051602001610e009190614aa4565b60405160208183030381529060405280519060200120148015610eaf575086604051602001610e2f919061498d565b60405160208183030381529060405280519060200120600260003373ffffffffffffffffffffffffffffffffffffffff1673ffffffffffffffffffffffffffffffffffffffff168152602001908152602001600020600201604051602001610e979190614aa4565b60405160208183030381529060405280519060200120145b8015610f47575085604051602001610ec7919061498d565b60405160208183030381529060405280519060200120600260003373ffffffffffffffffffffffffffffffffffffffff1673ffffffffffffffffffffffffffffffffffffffff168152602001908152602001600020600101604051602001610f2f9190614aa4565b60405160208183030381529060405280519060200120145b610f86576040517f08c379a0000000000000000000000000000000000000000000000000000000008152600401610f7d90614b2d565b60405180910390fd5b60001515600589604051610f9a919061498d565b908152602001604051809103902088604051610fb6919061498d565b908152602001604051809103902087604051610fd2919061498d565b9081526020016040518091039020600086815260200190815260200160002060060160009054906101000a900460ff16151514611044576040517f08c379a000000000000000000000000000000000000000000000000000000000815260040161103b90614bbf565b60405180910390fd5b6000600589604051611056919061498d565b908152602001604051809103902088604051611072919061498d565b90815260200160405180910390208760405161108e919061498d565b9081526020016040518091039020600086815260200190815260200160002090506000600360008673ffffffffffffffffffffffffffffffffffffffff1673ffffffffffffffffffffffffffffffffffffffff1681526020019081526020016000206000600660008873ffffffffffffffffffffffffffffffffffffffff1673ffffffffffffffffffffffffffffffffffffffff1681526020019081526020016000206006015481526020019081526020016000209050848260010160006101000a81548173ffffffffffffffffffffffffffffffffffffffff021916908373ffffffffffffffffffffffffffffffffffffffff160217905550338260020160006101000a81548173ffffffffffffffffffffffffffffffffffffffff021916908373ffffffffffffffffffffffffffffffffffffffff160217905550868260030181905550858260040181905550600660008673ffffffffffffffffffffffffffffffffffffffff1673ffffffffffffffffffffffffffffffffffffffff16815260200190815260200160002060060154826005018190555060018260060160006101000a81548160ff02191690831515021790555083826007018190555060008260080160006101000a81548160ff0219169083151502179055508282600b018190555085816000018190555089816001019080519060200190611295929190613b72565b50888160020190805190602001906112ae929190613b72565b50878160030190805190602001906112c7929190613b72565b50600660008673ffffffffffffffffffffffffffffffffffffffff1673ffffffffffffffffffffffffffffffffffffffff168152602001908152602001600020600601600081548092919061131b906148a7565b919050555050505050505050505050565b6060806060600080600460003373ffffffffffffffffffffffffffffffffffffffff1673ffffffffffffffffffffffffffffffffffffffff16815260200190815260200160002060008781526020019081526020016000206000015490506000600460003373ffffffffffffffffffffffffffffffffffffffff1673ffffffffffffffffffffffffffffffffffffffff168152602001908152602001600020600088815260200190815260200160002060010180546113ea9061491f565b80601f01602080910402602001604051908101604052809291908181526020018280546114169061491f565b80156114635780601f1061143857610100808354040283529160200191611463565b820191906000526020600020905b81548152906001019060200180831161144657829003601f168201915b505050505090506000600460003373ffffffffffffffffffffffffffffffffffffffff1673ffffffffffffffffffffffffffffffffffffffff168152602001908152602001600020600089815260200190815260200160002060020180546114ca9061491f565b80601f01602080910402602001604051908101604052809291908181526020018280546114f69061491f565b80156115435780601f1061151857610100808354040283529160200191611543565b820191906000526020600020905b81548152906001019060200180831161152657829003601f168201915b505050505090506000600460003373ffffffffffffffffffffffffffffffffffffffff1673ffffffffffffffffffffffffffffffffffffffff16815260200190815260200160002060008a815260200190815260200160002060030180546115aa9061491f565b80601f01602080910402602001604051908101604052809291908181526020018280546115d69061491f565b80156116235780601f106115f857610100808354040283529160200191611623565b820191906000526020600020905b81548152906001019060200180831161160657829003601f168201915b50505050509050828282869750975097509750505050509193509193565b600080600587604051611654919061498d565b908152602001604051809103902086604051611670919061498d565b90815260200160405180910390208560405161168c919061498d565b90815260200160405180910390206000858152602001908152602001600020600901600084815260200190815260200160002060000160009054906101000a900473ffffffffffffffffffffffffffffffffffffffff1690508091505095945050505050565b60026020528060005260406000206000915090508060000160009054906101000a900473ffffffffffffffffffffffffffffffffffffffff169080600101805461173b9061491f565b80601f01602080910402602001604051908101604052809291908181526020018280546117679061491f565b80156117b45780601f10611789576101008083540402835291602001916117b4565b820191906000526020600020905b81548152906001019060200180831161179757829003601f168201915b5050505050908060020180546117c99061491f565b80601f01602080910402602001604051908101604052809291908181526020018280546117f59061491f565b80156118425780601f1061181757610100808354040283529160200191611842565b820191906000526020600020905b81548152906001019060200180831161182557829003601f168201915b5050505050908060030180546118579061491f565b80601f01602080910402602001604051908101604052809291908181526020018280546118839061491f565b80156118d05780601f106118a5576101008083540402835291602001916118d0565b820191906000526020600020905b8154815290600101906020018083116118b357829003601f168201915b5050505050905084565b6000600360003373ffffffffffffffffffffffffffffffffffffffff1673ffffffffffffffffffffffffffffffffffffffff1681526020019081526020016000206000838152602001908152602001600020600101805461193a9061491f565b80601f01602080910402602001604051908101604052809291908181526020018280546119669061491f565b80156119b35780601f10611988576101008083540402835291602001916119b3565b820191906000526020600020905b81548152906001019060200180831161199657829003601f168201915b505050505090506000600360003373ffffffffffffffffffffffffffffffffffffffff1673ffffffffffffffffffffffffffffffffffffffff16815260200190815260200160002060008481526020019081526020016000206002018054611a1a9061491f565b80601f0160208091040260200160405190810160405280929190818152602001828054611a469061491f565b8015611a935780601f10611a6857610100808354040283529160200191611a93565b820191906000526020600020905b815481529060010190602001808311611a7657829003601f168201915b505050505090506000600360003373ffffffffffffffffffffffffffffffffffffffff1673ffffffffffffffffffffffffffffffffffffffff16815260200190815260200160002060008581526020019081526020016000206003018054611afa9061491f565b80601f0160208091040260200160405190810160405280929190818152602001828054611b269061491f565b8015611b735780601f10611b4857610100808354040283529160200191611b73565b820191906000526020600020905b815481529060010190602001808311611b5657829003601f168201915b505050505090506000600360003373ffffffffffffffffffffffffffffffffffffffff1673ffffffffffffffffffffffffffffffffffffffff168152602001908152602001600020600086815260200190815260200160002060000154905060001515600585604051611be6919061498d565b908152602001604051809103902084604051611c02919061498d565b908152602001604051809103902083604051611c1e919061498d565b9081526020016040518091039020600083815260200190815260200160002060080160009054906101000a900460ff16151514611c90576040517f08c379a0000000000000000000000000000000000000000000000000000000008152600401611c8790614c51565b60405180910390fd5b6001600585604051611ca2919061498d565b908152602001604051809103902084604051611cbe919061498d565b908152602001604051809103902083604051611cda919061498d565b9081526020016040518091039020600083815260200190815260200160002060080160006101000a81548160ff0219169083151502179055505050505050565b6000806000600660003373ffffffffffffffffffffffffffffffffffffffff1673ffffffffffffffffffffffffffffffffffffffff1681526020019081526020016000206006015490506000600660003373ffffffffffffffffffffffffffffffffffffffff1673ffffffffffffffffffffffffffffffffffffffff16815260200190815260200160002060070154905081819350935050509091565b6060806060600080600360003373ffffffffffffffffffffffffffffffffffffffff1673ffffffffffffffffffffffffffffffffffffffff16815260200190815260200160002060008781526020019081526020016000206000015490506000600360003373ffffffffffffffffffffffffffffffffffffffff1673ffffffffffffffffffffffffffffffffffffffff16815260200190815260200160002060008881526020019081526020016000206001018054611e759061491f565b80601f0160208091040260200160405190810160405280929190818152602001828054611ea19061491f565b8015611eee5780601f10611ec357610100808354040283529160200191611eee565b820191906000526020600020905b815481529060010190602001808311611ed157829003601f168201915b505050505090506000600360003373ffffffffffffffffffffffffffffffffffffffff1673ffffffffffffffffffffffffffffffffffffffff16815260200190815260200160002060008981526020019081526020016000206002018054611f559061491f565b80601f0160208091040260200160405190810160405280929190818152602001828054611f819061491f565b8015611fce5780601f10611fa357610100808354040283529160200191611fce565b820191906000526020600020905b815481529060010190602001808311611fb157829003601f168201915b505050505090506000600360003373ffffffffffffffffffffffffffffffffffffffff1673ffffffffffffffffffffffffffffffffffffffff16815260200190815260200160002060008a815260200190815260200160002060030180546120359061491f565b80601f01602080910402602001604051908101604052809291908181526020018280546120619061491f565b80156120ae5780601f10612083576101008083540402835291602001916120ae565b820191906000526020600020905b81548152906001019060200180831161209157829003601f168201915b50505050509050828282869750975097509750505050509193509193565b6060806060600060606000600660003373ffffffffffffffffffffffffffffffffffffffff1673ffffffffffffffffffffffffffffffffffffffff16815260200190815260200160002060010180546121249061491f565b80601f01602080910402602001604051908101604052809291908181526020018280546121509061491f565b801561219d5780601f106121725761010080835404028352916020019161219d565b820191906000526020600020905b81548152906001019060200180831161218057829003601f168201915b505050505090506000600660003373ffffffffffffffffffffffffffffffffffffffff1673ffffffffffffffffffffffffffffffffffffffff16815260200190815260200160002060020180546121f39061491f565b80601f016020809104026020016040519081016040528092919081815260200182805461221f9061491f565b801561226c5780601f106122415761010080835404028352916020019161226c565b820191906000526020600020905b81548152906001019060200180831161224f57829003601f168201915b505050505090506000600660003373ffffffffffffffffffffffffffffffffffffffff1673ffffffffffffffffffffffffffffffffffffffff16815260200190815260200160002060030180546122c29061491f565b80601f01602080910402602001604051908101604052809291908181526020018280546122ee9061491f565b801561233b5780601f106123105761010080835404028352916020019161233b565b820191906000526020600020905b81548152906001019060200180831161231e57829003601f168201915b505050505090506000600660003373ffffffffffffffffffffffffffffffffffffffff1673ffffffffffffffffffffffffffffffffffffffff1681526020019081526020016000206004015490506000600660003373ffffffffffffffffffffffffffffffffffffffff1673ffffffffffffffffffffffffffffffffffffffff16815260200190815260200160002060050180546123d89061491f565b80601f01602080910402602001604051908101604052809291908181526020018280546124049061491f565b80156124515780601f1061242657610100808354040283529160200191612451565b820191906000526020600020905b81548152906001019060200180831161243457829003601f168201915b5050505050905084848484849950995099509950995050505050509091929394565b6000600585604051612485919061498d565b9081526020016040518091039020846040516124a1919061498d565b9081526020016040518091039020836040516124bd919061498d565b908152602001604051809103902060008381526020019081526020016000209050600115158160080160009054906101000a900460ff16151514612536576040517f08c379a000000000000000000000000000000000000000000000000000000000815260040161252d90614ce3565b60405180910390fd5b600081600a015490503382600901600083815260200190815260200160002060000160006101000a81548173ffffffffffffffffffffffffffffffffffffffff021916908373ffffffffffffffffffffffffffffffffffffffff160217905550600660003373ffffffffffffffffffffffffffffffffffffffff1673ffffffffffffffffffffffffffffffffffffffff168152602001908152602001600020600701548260090160008381526020019081526020016000206001018190555081600a01600081548092919061260a906148a7565b91905055506000600460003373ffffffffffffffffffffffffffffffffffffffff1673ffffffffffffffffffffffffffffffffffffffff1681526020019081526020016000206000600660003373ffffffffffffffffffffffffffffffffffffffff1673ffffffffffffffffffffffffffffffffffffffff1681526020019081526020016000206007015481526020019081526020016000209050838160000181905550868160010190805190602001906126c6929190613b72565b50858160020190805190602001906126df929190613b72565b50848160030190805190602001906126f8929190613b72565b50600660003373ffffffffffffffffffffffffffffffffffffffff1673ffffffffffffffffffffffffffffffffffffffff168152602001908152602001600020600701600081548092919061274c906148a7565b919050555050505050505050565b60008060058660405161276d919061498d565b908152602001604051809103902085604051612789919061498d565b9081526020016040518091039020846040516127a5919061498d565b9081526020016040518091039020600084815260200190815260200160002060080160009054906101000a900460ff16905080915050949350505050565b60003373ffffffffffffffffffffffffffffffffffffffff16600260003373ffffffffffffffffffffffffffffffffffffffff1673ffffffffffffffffffffffffffffffffffffffff16815260200190815260200160002060000160009054906101000a900473ffffffffffffffffffffffffffffffffffffffff1673ffffffffffffffffffffffffffffffffffffffff1614156128845760019050612889565b600090505b90565b6000600660003373ffffffffffffffffffffffffffffffffffffffff1673ffffffffffffffffffffffffffffffffffffffff1681526020019081526020016000209050858160010190805190602001906128e7929190613b72565b5084816002019080519060200190612900929190613b72565b5083816003019080519060200190612919929190613b72565b508281600401819055508181600501908051906020019061293b929190613b72565b50505050505050565b6000806000600587604051612959919061498d565b908152602001604051809103902086604051612975919061498d565b908152602001604051809103902085604051612991919061498d565b90815260200160405180910390206000858152602001908152602001600020600a0154905060006005886040516129c8919061498d565b9081526020016040518091039020876040516129e4919061498d565b908152602001604051809103902086604051612a00919061498d565b90815260200160405180910390206000868152602001908152602001600020600301549050818193509350505094509492505050565b600360205281600052604060002060205280600052604060002060009150915050806000015490806001018054612a6c9061491f565b80601f0160208091040260200160405190810160405280929190818152602001828054612a989061491f565b8015612ae55780601f10612aba57610100808354040283529160200191612ae5565b820191906000526020600020905b815481529060010190602001808311612ac857829003601f168201915b505050505090806002018054612afa9061491f565b80601f0160208091040260200160405190810160405280929190818152602001828054612b269061491f565b8015612b735780601f10612b4857610100808354040283529160200191612b73565b820191906000526020600020905b815481529060010190602001808311612b5657829003601f168201915b505050505090806003018054612b889061491f565b80601f0160208091040260200160405190810160405280929190818152602001828054612bb49061491f565b8015612c015780601f10612bd657610100808354040283529160200191612c01565b820191906000526020600020905b815481529060010190602001808311612be457829003601f168201915b5050505050905084565b6000600360003373ffffffffffffffffffffffffffffffffffffffff1673ffffffffffffffffffffffffffffffffffffffff16815260200190815260200160002060008481526020019081526020016000206000015490506000600360003373ffffffffffffffffffffffffffffffffffffffff1673ffffffffffffffffffffffffffffffffffffffff16815260200190815260200160002060008581526020019081526020016000206001018054612cc39061491f565b80601f0160208091040260200160405190810160405280929190818152602001828054612cef9061491f565b8015612d3c5780601f10612d1157610100808354040283529160200191612d3c565b820191906000526020600020905b815481529060010190602001808311612d1f57829003601f168201915b505050505090506000600360003373ffffffffffffffffffffffffffffffffffffffff1673ffffffffffffffffffffffffffffffffffffffff16815260200190815260200160002060008681526020019081526020016000206002018054612da39061491f565b80601f0160208091040260200160405190810160405280929190818152602001828054612dcf9061491f565b8015612e1c5780601f10612df157610100808354040283529160200191612e1c565b820191906000526020600020905b815481529060010190602001808311612dff57829003601f168201915b505050505090506000600360003373ffffffffffffffffffffffffffffffffffffffff1673ffffffffffffffffffffffffffffffffffffffff16815260200190815260200160002060008781526020019081526020016000206003018054612e839061491f565b80601f0160208091040260200160405190810160405280929190818152602001828054612eaf9061491f565b8015612efc5780601f10612ed157610100808354040283529160200191612efc565b820191906000526020600020905b815481529060010190602001808311612edf57829003601f168201915b505050505090506000600584604051612f15919061498d565b908152602001604051809103902083604051612f31919061498d565b908152602001604051809103902082604051612f4d919061498d565b90815260200160405180910390206000868152602001908152602001600020600901600087815260200190815260200160002060000160009054906101000a900473ffffffffffffffffffffffffffffffffffffffff1690506000600585604051612fb8919061498d565b908152602001604051809103902084604051612fd4919061498d565b908152602001604051809103902083604051612ff0919061498d565b908152602001604051809103902060008781526020019081526020016000206009016000888152602001908152602001600020600101549050600060058660405161303b919061498d565b908152602001604051809103902085604051613057919061498d565b908152602001604051809103902084604051613073919061498d565b90815260200160405180910390206000888152602001908152602001600020600a015490506005866040516130a8919061498d565b9081526020016040518091039020856040516130c4919061498d565b9081526020016040518091039020846040516130e0919061498d565b90815260200160405180910390206000888152602001908152602001600020600001339080600181540180825580915050600190039060005260206000200160009091909190916101000a81548173ffffffffffffffffffffffffffffffffffffffff021916908373ffffffffffffffffffffffffffffffffffffffff16021790555060005b818110156133e1576000600588604051613180919061498d565b90815260200160405180910390208760405161319c919061498d565b9081526020016040518091039020866040516131b8919061498d565b908152602001604051809103902060008a8152602001908152602001600020600901600083815260200190815260200160002060000160009054906101000a900473ffffffffffffffffffffffffffffffffffffffff1690506000600589604051613223919061498d565b90815260200160405180910390208860405161323f919061498d565b90815260200160405180910390208760405161325b919061498d565b908152602001604051809103902060008b81526020019081526020016000206009016000848152602001908152602001600020600101549050600460008373ffffffffffffffffffffffffffffffffffffffff1673ffffffffffffffffffffffffffffffffffffffff16815260200190815260200160002060008281526020019081526020016000206000808201600090556001820160006132fd9190613bf8565b60028201600061330d9190613bf8565b60038201600061331d9190613bf8565b505060058960405161332f919061498d565b90815260200160405180910390208860405161334b919061498d565b908152602001604051809103902087604051613367919061498d565b908152602001604051809103902060008b81526020019081526020016000206009016000848152602001908152602001600020600080820160006101000a81549073ffffffffffffffffffffffffffffffffffffffff021916905560018201600090555050505080806133d9906148a7565b915050613166565b50826005876040516133f3919061498d565b90815260200160405180910390208660405161340f919061498d565b90815260200160405180910390208560405161342b919061498d565b9081526020016040518091039020600089815260200190815260200160002060010160006101000a81548173ffffffffffffffffffffffffffffffffffffffff021916908373ffffffffffffffffffffffffffffffffffffffff160217905550600060058760405161349d919061498d565b9081526020016040518091039020866040516134b9919061498d565b9081526020016040518091039020856040516134d5919061498d565b9081526020016040518091039020600089815260200190815260200160002060080160006101000a81548160ff0219169083151502179055506000600587604051613520919061498d565b90815260200160405180910390208660405161353c919061498d565b908152602001604051809103902085604051613558919061498d565b90815260200160405180910390206000898152602001908152602001600020600a0181905550600360003373ffffffffffffffffffffffffffffffffffffffff1673ffffffffffffffffffffffffffffffffffffffff16815260200190815260200160002060008a81526020019081526020016000206000808201600090556001820160006135e79190613bf8565b6002820160006135f79190613bf8565b6003820160006136079190613bf8565b50506000600660008573ffffffffffffffffffffffffffffffffffffffff1673ffffffffffffffffffffffffffffffffffffffff1681526020019081526020016000206006015490506000600360008673ffffffffffffffffffffffffffffffffffffffff1673ffffffffffffffffffffffffffffffffffffffff16815260200190815260200160002060008381526020019081526020016000209050888160000181905550878160010190805190602001906136c5929190613b72565b50868160020190805190602001906136de929190613b72565b50858160030190805190602001906136f7929190613b72565b5081600589604051613709919061498d565b908152602001604051809103902088604051613725919061498d565b908152602001604051809103902087604051613741919061498d565b908152602001604051809103902060008b815260200190815260200160002060050181905550600660008673ffffffffffffffffffffffffffffffffffffffff1673ffffffffffffffffffffffffffffffffffffffff16815260200190815260200160002060060160008154809291906137ba906148a7565b91905055505050505050505050505050565b60008060008060008060058a6040516137e5919061498d565b908152602001604051809103902089604051613801919061498d565b90815260200160405180910390208860405161381d919061498d565b9081526020016040518091039020600088815260200190815260200160002060010160009054906101000a900473ffffffffffffffffffffffffffffffffffffffff169050600060058b604051613874919061498d565b90815260200160405180910390208a604051613890919061498d565b9081526020016040518091039020896040516138ac919061498d565b90815260200160405180910390206000898152602001908152602001600020600301549050600060058c6040516138e3919061498d565b90815260200160405180910390208b6040516138ff919061498d565b90815260200160405180910390208a60405161391b919061498d565b908152602001604051809103902060008a8152602001908152602001600020600501549050600060058d604051613952919061498d565b90815260200160405180910390208c60405161396e919061498d565b90815260200160405180910390208b60405161398a919061498d565b908152602001604051809103902060008b8152602001908152602001600020600701549050600060058e6040516139c1919061498d565b90815260200160405180910390208d6040516139dd919061498d565b90815260200160405180910390208c6040516139f9919061498d565b908152602001604051809103902060008c8152602001908152602001600020600b015490508484848484995099509950995099505050505050945094509450945094565b600080600586604051613a50919061498d565b908152602001604051809103902085604051613a6c919061498d565b908152602001604051809103902084604051613a88919061498d565b908152602001604051809103902060008481526020019081526020016000209050600081600a015490506000811415613ac657600092505050613b64565b60005b81811015613b5c573373ffffffffffffffffffffffffffffffffffffffff1683600901600083815260200190815260200160002060000160009054906101000a900473ffffffffffffffffffffffffffffffffffffffff1673ffffffffffffffffffffffffffffffffffffffff161415613b495760019350505050613b64565b8080613b54906148a7565b915050613ac9565b506000925050505b949350505050565b60015481565b828054613b7e9061491f565b90600052602060002090601f016020900481019282613ba05760008555613be7565b82601f10613bb957805160ff1916838001178555613be7565b82800160010185558215613be7579182015b82811115613be6578251825591602001919060010190613bcb565b5b509050613bf49190613c38565b5090565b508054613c049061491f565b6000825580601f10613c165750613c35565b601f016020900490600052602060002090810190613c349190613c38565b5b50565b5b80821115613c51576000816000905550600101613c39565b5090565b6000604051905090565b600080fd5b600080fd5b600073ffffffffffffffffffffffffffffffffffffffff82169050919050565b6000613c9482613c69565b9050919050565b613ca481613c89565b8114613caf57600080fd5b50565b600081359050613cc181613c9b565b92915050565b600080fd5b600080fd5b6000601f19601f8301169050919050565b7f4e487b7100000000000000000000000000000000000000000000000000000000600052604160045260246000fd5b613d1a82613cd1565b810181811067ffffffffffffffff82111715613d3957613d38613ce2565b5b80604052505050565b6000613d4c613c55565b9050613d588282613d11565b919050565b600067ffffffffffffffff821115613d7857613d77613ce2565b5b613d8182613cd1565b9050602081019050919050565b82818337600083830152505050565b6000613db0613dab84613d5d565b613d42565b905082815260208101848484011115613dcc57613dcb613ccc565b5b613dd7848285613d8e565b509392505050565b600082601f830112613df457613df3613cc7565b5b8135613e04848260208601613d9d565b91505092915050565b60008060008060808587031215613e2757613e26613c5f565b5b6000613e3587828801613cb2565b945050602085013567ffffffffffffffff811115613e5657613e55613c64565b5b613e6287828801613ddf565b935050604085013567ffffffffffffffff811115613e8357613e82613c64565b5b613e8f87828801613ddf565b925050606085013567ffffffffffffffff811115613eb057613eaf613c64565b5b613ebc87828801613ddf565b91505092959194509250565b6000819050919050565b613edb81613ec8565b8114613ee657600080fd5b50565b600081359050613ef881613ed2565b92915050565b60008060408385031215613f1557613f14613c5f565b5b6000613f2385828601613cb2565b9250506020613f3485828601613ee9565b9150509250929050565b613f4781613ec8565b82525050565b600081519050919050565b600082825260208201905092915050565b60005b83811015613f87578082015181840152602081019050613f6c565b83811115613f96576000848401525b50505050565b6000613fa782613f4d565b613fb18185613f58565b9350613fc1818560208601613f69565b613fca81613cd1565b840191505092915050565b6000608082019050613fea6000830187613f3e565b8181036020830152613ffc8186613f9c565b905081810360408301526140108185613f9c565b905081810360608301526140248184613f9c565b905095945050505050565b6000806000806080858703121561404957614048613c5f565b5b600085013567ffffffffffffffff81111561406757614066613c64565b5b61407387828801613ddf565b945050602085013567ffffffffffffffff81111561409457614093613c64565b5b6140a087828801613ddf565b935050604085013567ffffffffffffffff8111156140c1576140c0613c64565b5b6140cd87828801613ddf565b92505060606140de87828801613ee9565b91505092959194509250565b6140f381613c89565b82525050565b60008115159050919050565b61410e816140f9565b82525050565b60006101408201905061412a600083018d6140ea565b614137602083018c6140ea565b614144604083018b613f3e565b614151606083018a613f3e565b61415e6080830189613f3e565b61416b60a0830188614105565b61417860c0830187613f3e565b61418560e0830186614105565b614193610100830185613f3e565b6141a1610120830184613f3e565b9b9a5050505050505050505050565b600081519050919050565b600082825260208201905092915050565b6000819050602082019050919050565b6141e581613c89565b82525050565b60006141f783836141dc565b60208301905092915050565b6000602082019050919050565b600061421b826141b0565b61422581856141bb565b9350614230836141cc565b8060005b8381101561426157815161424888826141eb565b975061425383614203565b925050600181019050614234565b5085935050505092915050565b600060208201905081810360008301526142888184614210565b905092915050565b6000602082840312156142a6576142a5613c5f565b5b60006142b484828501613cb2565b91505092915050565b6000610100820190506142d3600083018b6140ea565b81810360208301526142e5818a613f9c565b905081810360408301526142f98189613f9c565b9050818103606083015261430d8188613f9c565b905061431c6080830187613f3e565b81810360a083015261432e8186613f9c565b905061433d60c0830185613f3e565b61434a60e0830184613f3e565b9998505050505050505050565b600060208201905061436c60008301846140ea565b92915050565b600080600080600080600080610100898b03121561439357614392613c5f565b5b600089013567ffffffffffffffff8111156143b1576143b0613c64565b5b6143bd8b828c01613ddf565b985050602089013567ffffffffffffffff8111156143de576143dd613c64565b5b6143ea8b828c01613ddf565b975050604089013567ffffffffffffffff81111561440b5761440a613c64565b5b6144178b828c01613ddf565b96505060606144288b828c01613ee9565b95505060806144398b828c01613ee9565b94505060a061444a8b828c01613cb2565b93505060c061445b8b828c01613ee9565b92505060e061446c8b828c01613ee9565b9150509295985092959890939650565b60006020828403121561449257614491613c5f565b5b60006144a084828501613ee9565b91505092915050565b600060808201905081810360008301526144c38187613f9c565b905081810360208301526144d78186613f9c565b905081810360408301526144eb8185613f9c565b90506144fa6060830184613f3e565b95945050505050565b600080600080600060a0868803121561451f5761451e613c5f565b5b600086013567ffffffffffffffff81111561453d5761453c613c64565b5b61454988828901613ddf565b955050602086013567ffffffffffffffff81111561456a57614569613c64565b5b61457688828901613ddf565b945050604086013567ffffffffffffffff81111561459757614596613c64565b5b6145a388828901613ddf565b93505060606145b488828901613ee9565b92505060806145c588828901613ee9565b9150509295509295909350565b60006080820190506145e760008301876140ea565b81810360208301526145f98186613f9c565b9050818103604083015261460d8185613f9c565b905081810360608301526146218184613f9c565b905095945050505050565b60006040820190506146416000830185613f3e565b61464e6020830184613f3e565b9392505050565b600060a082019050818103600083015261466f8188613f9c565b905081810360208301526146838187613f9c565b905081810360408301526146978186613f9c565b90506146a66060830185613f3e565b81810360808301526146b88184613f9c565b90509695505050505050565b60006020820190506146d96000830184614105565b92915050565b600080600080600060a086880312156146fb576146fa613c5f565b5b600086013567ffffffffffffffff81111561471957614718613c64565b5b61472588828901613ddf565b955050602086013567ffffffffffffffff81111561474657614745613c64565b5b61475288828901613ddf565b945050604086013567ffffffffffffffff81111561477357614772613c64565b5b61477f88828901613ddf565b935050606061479088828901613ee9565b925050608086013567ffffffffffffffff8111156147b1576147b0613c64565b5b6147bd88828901613ddf565b9150509295509295909350565b600080604083850312156147e1576147e0613c5f565b5b60006147ef85828601613ee9565b925050602061480085828601613ee9565b9150509250929050565b600060a08201905061481f60008301886140ea565b61482c6020830187613f3e565b6148396040830186613f3e565b6148466060830185613f3e565b6148536080830184613f3e565b9695505050505050565b60006020820190506148726000830184613f3e565b92915050565b7f4e487b7100000000000000000000000000000000000000000000000000000000600052601160045260246000fd5b60006148b282613ec8565b91507fffffffffffffffffffffffffffffffffffffffffffffffffffffffffffffffff8214156148e5576148e4614878565b5b600182019050919050565b7f4e487b7100000000000000000000000000000000000000000000000000000000600052602260045260246000fd5b6000600282049050600182168061493757607f821691505b6020821081141561494b5761494a6148f0565b5b50919050565b600081905092915050565b600061496782613f4d565b6149718185614951565b9350614981818560208601613f69565b80840191505092915050565b6000614999828461495c565b915081905092915050565b7f4f6e6c792061646d696e2063616e205265676973746572206c616e6400000000600082015250565b60006149da601c83613f58565b91506149e5826149a4565b602082019050919050565b60006020820190508181036000830152614a09816149cd565b9050919050565b60008190508160005260206000209050919050565b60008154614a328161491f565b614a3c8186614951565b94506001821660008114614a575760018114614a6857614a9b565b60ff19831686528186019350614a9b565b614a7185614a10565b60005b83811015614a9357815481890152600182019150602081019050614a74565b838801955050505b50505092915050565b6000614ab08284614a25565b915081905092915050565b7f41646d696e2063616e206f6e6c79207265676973746572206c616e64206f662060008201527f73616d6520636974792e00000000000000000000000000000000000000000000602082015250565b6000614b17602a83613f58565b9150614b2282614abb565b604082019050919050565b60006020820190508181036000830152614b4681614b0a565b9050919050565b7f537572766579204e756d62657220616c7265616479207265676973746572656460008201527f2100000000000000000000000000000000000000000000000000000000000000602082015250565b6000614ba9602183613f58565b9150614bb482614b4d565b604082019050919050565b60006020820190508181036000830152614bd881614b9c565b9050919050565b7f50726f706572747920616c7265616479206d61726b656420617661696c61626c60008201527f6500000000000000000000000000000000000000000000000000000000000000602082015250565b6000614c3b602183613f58565b9150614c4682614bdf565b604082019050919050565b60006020820190508181036000830152614c6a81614c2e565b9050919050565b7f546869732070726f7065727479206973204e4f54206d61726b656420666f722060008201527f73616c6521000000000000000000000000000000000000000000000000000000602082015250565b6000614ccd602583613f58565b9150614cd882614c71565b604082019050919050565b60006020820190508181036000830152614cfc81614cc0565b905091905056fea2646970667358221220a56b7b1b87d0ba2d457360ec407db2ab59f4e92118f197821f2a3092fcdbd74f64736f6c63430008090033",
  "immutableReferences": {},
  "source": "// SPDX-License-Identifier: MIT\r\npragma solidity >= 0.5.0 < 0.9.0;\r\n\r\ncontract Registry{\r\n\r\n    address public superAdmin;\r\n    uint public totalAdmins;\r\n    \r\n    struct Admin{\r\n        address adminAddress;\r\n        string city;\r\n        string district;\r\n        string state;\r\n    }\r\n\r\n    struct LandDetails{\r\n        address[] previousOwners; // Array to store previous owners\r\n        address owner;\r\n        address admin;\r\n        uint256 propertyId;\r\n        uint surveyNumber;\r\n        uint index;\r\n        bool registered;\r\n        uint marketValue;\r\n        bool markAvailable;\r\n        mapping(uint => RequestDetails) requests; // reqNo => RequestDetails\r\n        uint noOfRequests;  // other users requested to this land\r\n        uint sqft;\r\n    }\r\n\r\n    struct UserProfile{\r\n        address userAddr;\r\n        string fullName;\r\n        string gender;\r\n        string email;\r\n        uint256 contact;\r\n        string residentialAddr;\r\n        uint totalIndices;\r\n        uint requestIndices;  // this user requested to other lands\r\n    }\r\n\r\n    struct OwnerOwns{\r\n        uint surveyNumber;\r\n        string state;\r\n        string district;\r\n        string city;\r\n    }\r\n    \r\n    struct RequestedLands{\r\n        uint surveyNumber;\r\n        string state;\r\n        string district;\r\n        string city;\r\n    }\r\n\r\n    struct RequestDetails{\r\n        address whoRequested;\r\n        uint reqIndex;\r\n    }\r\n\r\n    mapping(address => Admin) public admins;\r\n    mapping(address => mapping(uint => OwnerOwns)) public ownerMapsProperty;  // ownerAddr => index no. => OwnerOwns \r\n    mapping(address => mapping(uint => RequestedLands)) public requestedLands;  // ownerAddr => reqIndex => RequestedLands\r\n    mapping(string => mapping(string => mapping(string => mapping(uint => LandDetails)))) public landDetalsMap; // state => district => city => surveyNo => LandDetails\r\n    mapping(address => UserProfile) public userProfile;\r\n    \r\n\r\n    constructor(){\r\n        superAdmin = msg.sender;\r\n    }\r\n\r\n    modifier onlyAdmin(){\r\n        require(admins[msg.sender].adminAddress == msg.sender, \"Only admin can Register land\");\r\n        _;\r\n    }\r\n\r\n\r\n    // SuperAdmin: Registers new admin\r\n    function addAdmin(address _adminAddr, string memory _state, string memory _district, string memory _city) external{\r\n        Admin storage newAdmin = admins[_adminAddr];\r\n        totalAdmins++;\r\n\r\n        newAdmin.adminAddress = _adminAddr;\r\n        newAdmin.city = _city;\r\n        newAdmin.district = _district;\r\n        newAdmin.state = _state;\r\n    }\r\n\r\n\r\n    // check if it is admin\r\n    function isAdmin() external view returns(bool){\r\n        if(admins[msg.sender].adminAddress == msg.sender){\r\n            return true;\r\n        }\r\n        else return false;\r\n    }\r\n\r\n\r\n    // Admin: registers land\r\n    function registerLand(string memory _state, string memory _district, string memory _city, uint256 _propertyId, uint _surveyNo, address _owner, uint _marketValue, uint _sqft) external onlyAdmin{\r\n        \r\n        require(keccak256(abi.encodePacked(admins[msg.sender].state)) == keccak256(abi.encodePacked(_state))  \r\n        && keccak256(abi.encodePacked(admins[msg.sender].district)) == keccak256(abi.encodePacked(_district))\r\n        && keccak256(abi.encodePacked(admins[msg.sender].city)) == keccak256(abi.encodePacked(_city)), \"Admin can only register land of same city.\");\r\n\r\n        require(landDetalsMap[_state][_district][_city][_surveyNo].registered == false, \"Survey Number already registered!\");\r\n\r\n        LandDetails storage newLandRegistry = landDetalsMap[_state][_district][_city][_surveyNo];\r\n        OwnerOwns storage newOwnerOwns = ownerMapsProperty[_owner][userProfile[_owner].totalIndices];\r\n        \r\n\r\n        newLandRegistry.owner = _owner;\r\n        newLandRegistry.admin = msg.sender;\r\n        newLandRegistry.propertyId = _propertyId;\r\n        newLandRegistry.surveyNumber = _surveyNo;\r\n        newLandRegistry.index = userProfile[_owner].totalIndices;\r\n        newLandRegistry.registered = true;\r\n        newLandRegistry.marketValue = _marketValue;\r\n        newLandRegistry.markAvailable = false;\r\n        newLandRegistry.sqft = _sqft;\r\n\r\n        newOwnerOwns.surveyNumber = _surveyNo;\r\n        newOwnerOwns.state = _state;\r\n        newOwnerOwns.district = _district;\r\n        newOwnerOwns.city = _city;\r\n\r\n        userProfile[_owner].totalIndices++;\r\n    }\r\n\r\n\r\n    // User_1: set user profile\r\n    function setUserProfile(string memory _fullName, string memory _gender, string memory _email, uint256 _contact, string memory _residentialAddr) external{\r\n        \r\n        UserProfile storage newUserProfile = userProfile[msg.sender];\r\n\r\n        newUserProfile.fullName = _fullName;\r\n        newUserProfile.gender = _gender;\r\n        newUserProfile.email = _email;\r\n        newUserProfile.contact = _contact;\r\n        newUserProfile.residentialAddr = _residentialAddr;\r\n    }\r\n\r\n\r\n    // User_1: mark property available\r\n    function markMyPropertyAvailable(uint indexNo) external {\r\n        \r\n        string memory state = ownerMapsProperty[msg.sender][indexNo].state;\r\n        string memory district = ownerMapsProperty[msg.sender][indexNo].district;\r\n        string memory city = ownerMapsProperty[msg.sender][indexNo].city;\r\n        uint surveyNumber = ownerMapsProperty[msg.sender][indexNo].surveyNumber;\r\n\r\n        require(landDetalsMap[state][district][city][surveyNumber].markAvailable == false, \"Property already marked available\");\r\n\r\n        landDetalsMap[state][district][city][surveyNumber].markAvailable = true;\r\n    \r\n    }\r\n\r\n\r\n    // User_2: Request for buy  **ownerAddress & index = arguements** \r\n    function RequestForBuy(string memory _state, string memory _district, string memory _city, uint _surveyNo) external{\r\n\r\n        LandDetails storage thisLandDetail = landDetalsMap[_state][_district][_city][_surveyNo];\r\n        require(thisLandDetail.markAvailable == true, \"This property is NOT marked for sale!\");\r\n\r\n        uint req_serialNum = thisLandDetail.noOfRequests; \r\n        thisLandDetail.requests[req_serialNum].whoRequested = msg.sender;\r\n        thisLandDetail.requests[req_serialNum].reqIndex = userProfile[msg.sender].requestIndices;\r\n        thisLandDetail.noOfRequests++;\r\n\r\n        // adding requested land to user_2 profile\r\n        RequestedLands storage newReqestedLands = requestedLands[msg.sender][userProfile[msg.sender].requestIndices];\r\n        newReqestedLands.surveyNumber = _surveyNo;\r\n        newReqestedLands.state = _state;\r\n        newReqestedLands.district = _district;\r\n        newReqestedLands.city = _city;\r\n\r\n        userProfile[msg.sender].requestIndices++;\r\n\r\n    }\r\n\r\n\r\n    // User_1: Accept the buy request; sell.\r\n    function AcceptRequest(uint _index, uint _reqNo) external{\r\n\r\n        uint _surveyNo = ownerMapsProperty[msg.sender][_index].surveyNumber;\r\n        string memory _state = ownerMapsProperty[msg.sender][_index].state; \r\n        string memory _district = ownerMapsProperty[msg.sender][_index].district;\r\n        string memory _city = ownerMapsProperty[msg.sender][_index].city;\r\n        \r\n        // updating LandDetails\r\n        address newOwner = landDetalsMap[_state][_district][_city][_surveyNo].requests[_reqNo].whoRequested;\r\n        uint newOwner_reqIndex = landDetalsMap[_state][_district][_city][_surveyNo].requests[_reqNo].reqIndex;\r\n        uint noOfReq = landDetalsMap[_state][_district][_city][_surveyNo].noOfRequests;\r\n\r\n        // Add the current owner to the history\r\n        landDetalsMap[_state][_district][_city][_surveyNo].previousOwners.push(msg.sender);\r\n\r\n        // deleting requested land from all requesters AND removing all incoming requests\r\n        for(uint i=0; i<noOfReq; i++){\r\n            address requesterAddr = landDetalsMap[_state][_district][_city][_surveyNo].requests[i].whoRequested;\r\n            uint requester_reqIndx = landDetalsMap[_state][_district][_city][_surveyNo].requests[i].reqIndex;\r\n            \r\n            delete requestedLands[requesterAddr][requester_reqIndx];\r\n            delete landDetalsMap[_state][_district][_city][_surveyNo].requests[i];\r\n        }\r\n\r\n        landDetalsMap[_state][_district][_city][_surveyNo].owner = newOwner;\r\n        landDetalsMap[_state][_district][_city][_surveyNo].markAvailable = false;\r\n        landDetalsMap[_state][_district][_city][_surveyNo].noOfRequests = 0;\r\n\r\n        // deleting property from user_1's ownerMapsProperty \r\n        delete ownerMapsProperty[msg.sender][_index];\r\n\r\n        // adding ownerMapsProperty for newOwner\r\n        uint newOwnerTotProp = userProfile[newOwner].totalIndices;\r\n        OwnerOwns storage newOwnerOwns = ownerMapsProperty[newOwner][newOwnerTotProp];\r\n       \r\n        newOwnerOwns.surveyNumber = _surveyNo;\r\n        newOwnerOwns.state = _state;\r\n        newOwnerOwns.district = _district;\r\n        newOwnerOwns.city = _city;\r\n\r\n        landDetalsMap[_state][_district][_city][_surveyNo].index = newOwnerTotProp;\r\n\r\n        userProfile[newOwner].totalIndices++;\r\n\r\n    }\r\n\r\n\r\n    \r\n    //******* GETTERS **********\r\n\r\n    // return land details \r\n    function getLandDetails(string memory _state, string memory _district, string memory _city, uint _surveyNo) external view returns(address, uint256, uint, uint, uint){\r\n        \r\n        address owner = landDetalsMap[_state][_district][_city][_surveyNo].owner;\r\n        uint256 propertyid = landDetalsMap[_state][_district][_city][_surveyNo].propertyId;\r\n        uint indx = landDetalsMap[_state][_district][_city][_surveyNo].index;\r\n        uint mv = landDetalsMap[_state][_district][_city][_surveyNo].marketValue;\r\n        uint sqft = landDetalsMap[_state][_district][_city][_surveyNo].sqft;\r\n\r\n        return(owner, propertyid, indx, mv, sqft);\r\n    }\r\n\r\n    function getRequestCnt_propId(string memory _state, string memory _district, string memory _city, uint _surveyNo) external view returns(uint, uint256){\r\n        uint _noOfRequests = landDetalsMap[_state][_district][_city][_surveyNo].noOfRequests;\r\n        uint256 _propertyId = landDetalsMap[_state][_district][_city][_surveyNo].propertyId;\r\n        return(_noOfRequests, _propertyId);\r\n    }\r\n\r\n    function getRequesterDetail(string memory _state, string memory _district, string memory _city, uint _surveyNo, uint _reqIndex) external view returns(address){\r\n        address requester = landDetalsMap[_state][_district][_city][_surveyNo].requests[_reqIndex].whoRequested;\r\n        return(requester);\r\n    }\r\n\r\n    function isAvailable(string memory _state, string memory _district, string memory _city, uint _surveyNo) external view returns(bool){\r\n        bool available = landDetalsMap[_state][_district][_city][_surveyNo].markAvailable;\r\n        return(available);\r\n    }\r\n\r\n    function getOwnerOwns(uint indx) external view returns(string memory, string memory, string memory, uint){\r\n        \r\n        uint surveyNo = ownerMapsProperty[msg.sender][indx].surveyNumber;\r\n        string memory state = ownerMapsProperty[msg.sender][indx].state;\r\n        string memory district = ownerMapsProperty[msg.sender][indx].district;\r\n        string memory city = ownerMapsProperty[msg.sender][indx].city;\r\n\r\n        return(state, district, city, surveyNo);\r\n    }\r\n\r\n    function getRequestedLands(uint indx) external view returns(string memory, string memory, string memory, uint){\r\n        \r\n        uint surveyNo = requestedLands[msg.sender][indx].surveyNumber;\r\n        string memory state = requestedLands[msg.sender][indx].state;\r\n        string memory district = requestedLands[msg.sender][indx].district;\r\n        string memory city = requestedLands[msg.sender][indx].city;\r\n\r\n        return(state, district, city, surveyNo);\r\n    }\r\n\r\n    function getUserProfile() external view returns(string memory, string memory, string memory, uint256, string memory){\r\n        \r\n        string memory fullName = userProfile[msg.sender].fullName;\r\n        string memory gender = userProfile[msg.sender].gender;\r\n        string memory email = userProfile[msg.sender].email;\r\n        uint256 contact = userProfile[msg.sender].contact;\r\n        string memory residentialAddr = userProfile[msg.sender].residentialAddr;\r\n\r\n        return(fullName, gender, email, contact, residentialAddr);\r\n    }\r\n\r\n    function getIndices() external view returns(uint, uint){\r\n\r\n        uint _totalIndices = userProfile[msg.sender].totalIndices;\r\n        uint _reqIndices = userProfile[msg.sender].requestIndices;\r\n\r\n        return(_totalIndices, _reqIndices);\r\n    }\r\n\r\n\r\n    function didIRequested(string memory _state, string memory _district, string memory _city, uint _surveyNo) external view returns(bool){\r\n        \r\n        LandDetails storage thisLandDetail = landDetalsMap[_state][_district][_city][_surveyNo];\r\n        uint _noOfRequests = thisLandDetail.noOfRequests;\r\n\r\n        if(_noOfRequests == 0) \r\n            return (false);\r\n\r\n        for(uint i=0; i<_noOfRequests; i++){\r\n            if(thisLandDetail.requests[i].whoRequested == msg.sender){\r\n                return (true);\r\n            }\r\n        } \r\n\r\n        return(false);\r\n    } \r\n\r\n    // Function to get the history of owners for a land\r\n    function getOwnerHistory(string memory _state, string memory _district, string memory _city, uint _surveyNo) external view returns (address[] memory) {\r\n        return landDetalsMap[_state][_district][_city][_surveyNo].previousOwners;\r\n    }\r\n}\r\n",
  "sourcePath": "D:\\FINAL BLOCKCHAIN APP\\UPDATED\\Land_Management(FInal)\\contracts\\Registry.sol",
  "compiler": {
    "name": "solc",
    "version": "0.8.9+commit.e5eed63a.Emscripten.clang"
  },
  "schemaVersion": "3.4.16",
  "updatedAt": "2024-05-12T19:49:36.280Z",
  "devdoc": {
    "kind": "dev",
    "methods": {},
    "version": 1
  },
  "userdoc": {
    "kind": "user",
    "methods": {},
    "version": 1
  }
}